{
  "contractName": "Marketplace",
  "abi": [
    {
      "constant": true,
      "inputs": [
        {
          "name": "",
          "type": "address"
        }
      ],
      "name": "members",
      "outputs": [
        {
          "name": "",
          "type": "bool"
        }
      ],
      "payable": false,
      "stateMutability": "view",
      "type": "function"
    },
    {
      "constant": true,
      "inputs": [
        {
          "name": "",
          "type": "uint256"
        }
      ],
      "name": "newSellerRequests",
      "outputs": [
        {
          "name": "",
          "type": "address"
        }
      ],
      "payable": false,
      "stateMutability": "view",
      "type": "function"
    },
    {
      "constant": true,
      "inputs": [
        {
          "name": "",
          "type": "address"
        }
      ],
      "name": "sellers",
      "outputs": [
        {
          "name": "",
          "type": "bool"
        }
      ],
      "payable": false,
      "stateMutability": "view",
      "type": "function"
    },
    {
      "constant": true,
      "inputs": [
        {
          "name": "",
          "type": "uint256"
        }
      ],
      "name": "products",
      "outputs": [
        {
          "name": "id",
          "type": "uint256"
        },
        {
          "name": "name",
          "type": "string"
        },
        {
          "name": "desc",
          "type": "string"
        },
        {
          "name": "quantity",
          "type": "uint256"
        },
        {
          "name": "price",
          "type": "uint256"
        }
      ],
      "payable": false,
      "stateMutability": "view",
      "type": "function"
    },
    {
      "constant": false,
      "inputs": [],
      "name": "destroy",
      "outputs": [],
      "payable": false,
      "stateMutability": "nonpayable",
      "type": "function"
    },
    {
      "constant": true,
      "inputs": [],
      "name": "owner",
      "outputs": [
        {
          "name": "",
          "type": "address"
        }
      ],
      "payable": false,
      "stateMutability": "view",
      "type": "function"
    },
    {
      "constant": true,
      "inputs": [
        {
          "name": "",
          "type": "uint256"
        }
      ],
      "name": "productById",
      "outputs": [
        {
          "name": "id",
          "type": "uint256"
        },
        {
          "name": "name",
          "type": "string"
        },
        {
          "name": "desc",
          "type": "string"
        },
        {
          "name": "quantity",
          "type": "uint256"
        },
        {
          "name": "price",
          "type": "uint256"
        }
      ],
      "payable": false,
      "stateMutability": "view",
      "type": "function"
    },
    {
      "constant": true,
      "inputs": [],
      "name": "productIndex",
      "outputs": [
        {
          "name": "",
          "type": "uint256"
        }
      ],
      "payable": false,
      "stateMutability": "view",
      "type": "function"
    },
    {
      "constant": false,
      "inputs": [
        {
          "name": "newOwner",
          "type": "address"
        }
      ],
      "name": "transferOwnership",
      "outputs": [],
      "payable": false,
      "stateMutability": "nonpayable",
      "type": "function"
    },
    {
      "constant": false,
      "inputs": [
        {
          "name": "_recipient",
          "type": "address"
        }
      ],
      "name": "destroyAndSend",
      "outputs": [],
      "payable": false,
      "stateMutability": "nonpayable",
      "type": "function"
    },
    {
      "inputs": [],
      "payable": false,
      "stateMutability": "nonpayable",
      "type": "constructor"
    },
    {
      "payable": true,
      "stateMutability": "payable",
      "type": "fallback"
    },
    {
      "anonymous": false,
      "inputs": [
        {
          "indexed": false,
          "name": "newMemberAddress",
          "type": "address"
        }
      ],
      "name": "newMemberAdded",
      "type": "event"
    },
    {
      "anonymous": false,
      "inputs": [
        {
          "indexed": false,
          "name": "removedMemberAddress",
          "type": "address"
        }
      ],
      "name": "removedMember",
      "type": "event"
    },
    {
      "anonymous": false,
      "inputs": [
        {
          "indexed": false,
          "name": "sellerRequested",
          "type": "address"
        }
      ],
      "name": "newSellerRequestSent",
      "type": "event"
    },
    {
      "anonymous": false,
      "inputs": [
        {
          "indexed": false,
          "name": "approvedseller",
          "type": "address"
        }
      ],
      "name": "newSellerAdded",
      "type": "event"
    },
    {
      "anonymous": false,
      "inputs": [
        {
          "indexed": false,
          "name": "",
          "type": "address[]"
        }
      ],
      "name": "newSellerRequestSent",
      "type": "event"
    },
    {
      "anonymous": false,
      "inputs": [
        {
          "indexed": false,
          "name": "_productId",
          "type": "uint256"
        },
        {
          "indexed": false,
          "name": "_name",
          "type": "string"
        },
        {
          "indexed": false,
          "name": "_desc",
          "type": "string"
        },
        {
          "indexed": false,
          "name": "_quantity",
          "type": "uint256"
        },
        {
          "indexed": false,
          "name": "_price",
          "type": "uint256"
        }
      ],
      "name": "NewProduct",
      "type": "event"
    },
    {
      "anonymous": false,
      "inputs": [
        {
          "indexed": true,
          "name": "productId",
          "type": "uint256"
        },
        {
          "indexed": false,
          "name": "quantity",
          "type": "uint256"
        }
      ],
      "name": "PurchaseMade",
      "type": "event"
    },
    {
      "anonymous": false,
      "inputs": [
        {
          "indexed": true,
          "name": "previousOwner",
          "type": "address"
        },
        {
          "indexed": true,
          "name": "newOwner",
          "type": "address"
        }
      ],
      "name": "OwnershipTransferred",
      "type": "event"
    },
    {
      "constant": false,
      "inputs": [
        {
          "name": "newMember",
          "type": "address"
        }
      ],
      "name": "addMember",
      "outputs": [],
      "payable": false,
      "stateMutability": "nonpayable",
      "type": "function"
    },
    {
      "constant": false,
      "inputs": [
        {
          "name": "member",
          "type": "address"
        }
      ],
      "name": "removeMember",
      "outputs": [],
      "payable": false,
      "stateMutability": "nonpayable",
      "type": "function"
    },
    {
      "constant": true,
      "inputs": [],
      "name": "getUserType",
      "outputs": [
        {
          "name": "",
          "type": "string"
        }
      ],
      "payable": false,
      "stateMutability": "view",
      "type": "function"
    },
    {
      "constant": false,
      "inputs": [],
      "name": "addStoreOwnerRequest",
      "outputs": [],
      "payable": false,
      "stateMutability": "nonpayable",
      "type": "function"
    },
    {
      "constant": false,
      "inputs": [
        {
          "name": "index",
          "type": "uint256"
        },
        {
          "name": "seller",
          "type": "address"
        }
      ],
      "name": "approveStoreOwner",
      "outputs": [],
      "payable": false,
      "stateMutability": "nonpayable",
      "type": "function"
    },
    {
      "constant": true,
      "inputs": [],
      "name": "sellerRequestsList",
      "outputs": [
        {
          "name": "",
          "type": "address[]"
        }
      ],
      "payable": false,
      "stateMutability": "view",
      "type": "function"
    },
    {
      "constant": false,
      "inputs": [
        {
          "name": "_name",
          "type": "string"
        },
        {
          "name": "_desc",
          "type": "string"
        },
        {
          "name": "_quantity",
          "type": "uint256"
        },
        {
          "name": "_price",
          "type": "uint256"
        }
      ],
      "name": "addProductToStore",
      "outputs": [],
      "payable": true,
      "stateMutability": "payable",
      "type": "function"
    },
    {
      "constant": true,
      "inputs": [
        {
          "name": "_productId",
          "type": "uint256"
        }
      ],
      "name": "getProduct",
      "outputs": [
        {
          "name": "",
          "type": "uint256"
        },
        {
          "name": "",
          "type": "string"
        },
        {
          "name": "",
          "type": "string"
        },
        {
          "name": "",
          "type": "uint256"
        },
        {
          "name": "",
          "type": "uint256"
        }
      ],
      "payable": false,
      "stateMutability": "view",
      "type": "function"
    },
    {
      "constant": false,
      "inputs": [
        {
          "name": "_id",
          "type": "uint256"
        },
        {
          "name": "_quantity",
          "type": "uint256"
        }
      ],
      "name": "buyItem",
      "outputs": [],
      "payable": true,
      "stateMutability": "payable",
      "type": "function"
    },
    {
      "constant": false,
      "inputs": [],
      "name": "withdraw",
      "outputs": [],
      "payable": true,
      "stateMutability": "payable",
      "type": "function"
    },
    {
      "constant": false,
      "inputs": [],
      "name": "kill",
      "outputs": [],
      "payable": false,
      "stateMutability": "nonpayable",
      "type": "function"
    }
  ],
  "bytecode": "0x608060405234801561001057600080fd5b50336000806101000a81548173ffffffffffffffffffffffffffffffffffffffff021916908373ffffffffffffffffffffffffffffffffffffffff16021790555060018060003373ffffffffffffffffffffffffffffffffffffffff1673ffffffffffffffffffffffffffffffffffffffff16815260200190815260200160002060006101000a81548160ff021916908315150217905550611fe0806100b76000396000f30060806040526004361061011d576000357c0100000000000000000000000000000000000000000000000000000000900463ffffffff16806308ae4b0c1461011f5780630b1ca49a1461017a578063299e0f7b146101bd57806331bb6303146102735780633ccfd60b146102c05780633d574fc7146102ca578063419900771461033757806341c0e1b5146103c75780636d47ab72146103de5780637acc0b201461043957806383197ef0146105605780638c72a4ef146105775780638da5cb5b146105e35780639979c0091461063a578063a30b475f14610664578063b9db15b41461078b578063c897d5a6146108b2578063ca6d56dc146108dd578063d66e92c214610920578063f2fde38b14610937578063f5074f411461097a575b005b34801561012b57600080fd5b50610160600480360381019080803573ffffffffffffffffffffffffffffffffffffffff1690602001909291905050506109bd565b604051808215151515815260200191505060405180910390f35b34801561018657600080fd5b506101bb600480360381019080803573ffffffffffffffffffffffffffffffffffffffff1690602001909291905050506109dd565b005b610271600480360381019080803590602001908201803590602001908080601f0160208091040260200160405190810160405280939291908181526020018383808284378201915050505050509192919290803590602001908201803590602001908080601f01602080910402602001604051908101604052809392919081815260200183838082843782019150505050505091929192908035906020019092919080359060200190929190505050610b50565b005b34801561027f57600080fd5b506102be60048036038101908080359060200190929190803573ffffffffffffffffffffffffffffffffffffffff169060200190929190505050610e91565b005b6102c8610fd2565b005b3480156102d657600080fd5b506102f5600480360381019080803590602001909291905050506110f7565b604051808273ffffffffffffffffffffffffffffffffffffffff1673ffffffffffffffffffffffffffffffffffffffff16815260200191505060405180910390f35b34801561034357600080fd5b5061034c611135565b6040518080602001828103825283818151815260200191508051906020019080838360005b8381101561038c578082015181840152602081019050610371565b50505050905090810190601f1680156103b95780820380516001836020036101000a031916815260200191505b509250505060405180910390f35b3480156103d357600080fd5b506103dc61129f565b005b3480156103ea57600080fd5b5061041f600480360381019080803573ffffffffffffffffffffffffffffffffffffffff169060200190929190505050611334565b604051808215151515815260200191505060405180910390f35b34801561044557600080fd5b5061046460048036038101908080359060200190929190505050611354565b604051808681526020018060200180602001858152602001848152602001838103835287818151815260200191508051906020019080838360005b838110156104ba57808201518184015260208101905061049f565b50505050905090810190601f1680156104e75780820380516001836020036101000a031916815260200191505b50838103825286818151815260200191508051906020019080838360005b83811015610520578082015181840152602081019050610505565b50505050905090810190601f16801561054d5780820380516001836020036101000a031916815260200191505b5097505050505050505060405180910390f35b34801561056c57600080fd5b506105756114ba565b005b34801561058357600080fd5b5061058c61154f565b6040518080602001828103825283818151815260200191508051906020019060200280838360005b838110156105cf5780820151818401526020810190506105b4565b505050509050019250505060405180910390f35b3480156105ef57600080fd5b506105f86115dd565b604051808273ffffffffffffffffffffffffffffffffffffffff1673ffffffffffffffffffffffffffffffffffffffff16815260200191505060405180910390f35b6106626004803603810190808035906020019092919080359060200190929190505050611602565b005b34801561067057600080fd5b5061068f6004803603810190808035906020019092919050505061178d565b604051808681526020018060200180602001858152602001848152602001838103835287818151815260200191508051906020019080838360005b838110156106e55780820151818401526020810190506106ca565b50505050905090810190601f1680156107125780820380516001836020036101000a031916815260200191505b50838103825286818151815260200191508051906020019080838360005b8381101561074b578082015181840152602081019050610730565b50505050905090810190601f1680156107785780820380516001836020036101000a031916815260200191505b5097505050505050505060405180910390f35b34801561079757600080fd5b506107b6600480360381019080803590602001909291905050506118f3565b604051808681526020018060200180602001858152602001848152602001838103835287818151815260200191508051906020019080838360005b8381101561080c5780820151818401526020810190506107f1565b50505050905090810190601f1680156108395780820380516001836020036101000a031916815260200191505b50838103825286818151815260200191508051906020019080838360005b83811015610872578082015181840152602081019050610857565b50505050905090810190601f16801561089f5780820380516001836020036101000a031916815260200191505b5097505050505050505060405180910390f35b3480156108be57600080fd5b506108c7611b29565b6040518082815260200191505060405180910390f35b3480156108e957600080fd5b5061091e600480360381019080803573ffffffffffffffffffffffffffffffffffffffff169060200190929190505050611b2f565b005b34801561092c57600080fd5b50610935611c4b565b005b34801561094357600080fd5b50610978600480360381019080803573ffffffffffffffffffffffffffffffffffffffff169060200190929190505050611d16565b005b34801561098657600080fd5b506109bb600480360381019080803573ffffffffffffffffffffffffffffffffffffffff169060200190929190505050611e6b565b005b60016020528060005260406000206000915054906101000a900460ff1681565b6000809054906101000a900473ffffffffffffffffffffffffffffffffffffffff1673ffffffffffffffffffffffffffffffffffffffff163373ffffffffffffffffffffffffffffffffffffffff16141515610a3857600080fd5b60011515600160008373ffffffffffffffffffffffffffffffffffffffff1673ffffffffffffffffffffffffffffffffffffffff16815260200190815260200160002060009054906101000a900460ff1615151415610aea576000600160008373ffffffffffffffffffffffffffffffffffffffff1673ffffffffffffffffffffffffffffffffffffffff16815260200190815260200160002060006101000a81548160ff0219169083151502179055505b7f9dda63e260aca4ea6cb40673bc409af381f002409e41b15e8bead2b6de93a40581604051808273ffffffffffffffffffffffffffffffffffffffff1673ffffffffffffffffffffffffffffffffffffffff16815260200191505060405180910390a150565b610b58611edf565b60011515600260003373ffffffffffffffffffffffffffffffffffffffff1673ffffffffffffffffffffffffffffffffffffffff16815260200190815260200160002060009054906101000a900460ff161515141515610bb757600080fd5b600160066000828254019250508190555060a060405190810160405280600654815260200186815260200185815260200184815260200183815250905080600460003373ffffffffffffffffffffffffffffffffffffffff1673ffffffffffffffffffffffffffffffffffffffff16815260200190815260200160002060006006548152602001908152602001600020600082015181600001556020820151816001019080519060200190610c6d929190611f0f565b506040820151816002019080519060200190610c8a929190611f0f565b50606082015181600301556080820151816004015590505080600860006006548152602001908152602001600020600082015181600001556020820151816001019080519060200190610cde929190611f0f565b506040820151816002019080519060200190610cfb929190611f0f565b5060608201518160030155608082015181600401559050503360056000600654815260200190815260200160002060006101000a81548173ffffffffffffffffffffffffffffffffffffffff021916908373ffffffffffffffffffffffffffffffffffffffff1602179055507fc86b920148e151a78e4a627284a763302c966579a89be8494ba9562ac1f61b7b60065486868686604051808681526020018060200180602001858152602001848152602001838103835287818151815260200191508051906020019080838360005b83811015610de5578082015181840152602081019050610dca565b50505050905090810190601f168015610e125780820380516001836020036101000a031916815260200191505b50838103825286818151815260200191508051906020019080838360005b83811015610e4b578082015181840152602081019050610e30565b50505050905090810190601f168015610e785780820380516001836020036101000a031916815260200191505b5097505050505050505060405180910390a15050505050565b60011515600160003373ffffffffffffffffffffffffffffffffffffffff1673ffffffffffffffffffffffffffffffffffffffff16815260200190815260200160002060009054906101000a900460ff161515141515610ef057600080fd5b81600380549050111515610f0357600080fd5b8073ffffffffffffffffffffffffffffffffffffffff16600383815481101515610f2957fe5b9060005260206000200160009054906101000a900473ffffffffffffffffffffffffffffffffffffffff1673ffffffffffffffffffffffffffffffffffffffff16141515610f7657600080fd5b6001600260008373ffffffffffffffffffffffffffffffffffffffff1673ffffffffffffffffffffffffffffffffffffffff16815260200190815260200160002060006101000a81548160ff0219169083151502179055505050565b60011515600260003373ffffffffffffffffffffffffffffffffffffffff1673ffffffffffffffffffffffffffffffffffffffff16815260200190815260200160002060009054906101000a900460ff16151514151561103157600080fd5b6000809054906101000a900473ffffffffffffffffffffffffffffffffffffffff1673ffffffffffffffffffffffffffffffffffffffff166108fc3073ffffffffffffffffffffffffffffffffffffffff16319081150290604051600060405180830381858888f193505050501580156110af573d6000803e3d6000fd5b506000600960003373ffffffffffffffffffffffffffffffffffffffff1673ffffffffffffffffffffffffffffffffffffffff16815260200190815260200160002081905550565b60038181548110151561110657fe5b906000526020600020016000915054906101000a900473ffffffffffffffffffffffffffffffffffffffff1681565b606060011515600160003373ffffffffffffffffffffffffffffffffffffffff1673ffffffffffffffffffffffffffffffffffffffff16815260200190815260200160002060009054906101000a900460ff16151514156111cd576040805190810160405280601181526020017f6d61726b6574706c6163654d656d626572000000000000000000000000000000815250905061129c565b60011515600260003373ffffffffffffffffffffffffffffffffffffffff1673ffffffffffffffffffffffffffffffffffffffff16815260200190815260200160002060009054906101000a900460ff1615151415611263576040805190810160405280600681526020017f73656c6c65720000000000000000000000000000000000000000000000000000815250905061129c565b6040805190810160405280600881526020017f637573746f6d657200000000000000000000000000000000000000000000000081525090505b90565b6000809054906101000a900473ffffffffffffffffffffffffffffffffffffffff1673ffffffffffffffffffffffffffffffffffffffff163373ffffffffffffffffffffffffffffffffffffffff161415156112fa57600080fd5b6000809054906101000a900473ffffffffffffffffffffffffffffffffffffffff1673ffffffffffffffffffffffffffffffffffffffff16ff5b60026020528060005260406000206000915054906101000a900460ff1681565b6007602052806000526040600020600091509050806000015490806001018054600181600116156101000203166002900480601f0160208091040260200160405190810160405280929190818152602001828054600181600116156101000203166002900480156114065780601f106113db57610100808354040283529160200191611406565b820191906000526020600020905b8154815290600101906020018083116113e957829003601f168201915b505050505090806002018054600181600116156101000203166002900480601f0160208091040260200160405190810160405280929190818152602001828054600181600116156101000203166002900480156114a45780601f10611479576101008083540402835291602001916114a4565b820191906000526020600020905b81548152906001019060200180831161148757829003601f168201915b5050505050908060030154908060040154905085565b6000809054906101000a900473ffffffffffffffffffffffffffffffffffffffff1673ffffffffffffffffffffffffffffffffffffffff163373ffffffffffffffffffffffffffffffffffffffff1614151561151557600080fd5b6000809054906101000a900473ffffffffffffffffffffffffffffffffffffffff1673ffffffffffffffffffffffffffffffffffffffff16ff5b606060038054806020026020016040519081016040528092919081815260200182805480156115d357602002820191906000526020600020905b8160009054906101000a900473ffffffffffffffffffffffffffffffffffffffff1673ffffffffffffffffffffffffffffffffffffffff1681526020019060010190808311611589575b5050505050905090565b6000809054906101000a900473ffffffffffffffffffffffffffffffffffffffff1681565b34600860008481526020019081526020016000206004015411151515611690576040517f08c379a00000000000000000000000000000000000000000000000000000000081526004018080602001828103825260108152602001807f6e6f7420656e6f7567682065746865720000000000000000000000000000000081525060200191505060405180910390fd5b8060086000848152602001908152602001600020600301541015151561171e576040517f08c379a000000000000000000000000000000000000000000000000000000000815260040180806020018281038252601d8152602001807f776520646f6e277420686176652074686174206d75636820736f72727900000081525060200191505060405180910390fd5b817f7a53680a44b794c8ef9f1d38676e09a22df8a9bae6949d9da9d275b78d8d74d6826040518082815260200191505060405180910390a28060086000848152602001908152602001600020600301540360086000848152602001908152602001600020600301819055505050565b6008602052806000526040600020600091509050806000015490806001018054600181600116156101000203166002900480601f01602080910402602001604051908101604052809291908181526020018280546001816001161561010002031660029004801561183f5780601f106118145761010080835404028352916020019161183f565b820191906000526020600020905b81548152906001019060200180831161182257829003601f168201915b505050505090806002018054600181600116156101000203166002900480601f0160208091040260200160405190810160405280929190818152602001828054600181600116156101000203166002900480156118dd5780601f106118b2576101008083540402835291602001916118dd565b820191906000526020600020905b8154815290600101906020018083116118c057829003601f168201915b5050505050908060030154908060040154905085565b6000606080600080611903611edf565b60046000600560008a815260200190815260200160002060009054906101000a900473ffffffffffffffffffffffffffffffffffffffff1673ffffffffffffffffffffffffffffffffffffffff1673ffffffffffffffffffffffffffffffffffffffff168152602001908152602001600020600088815260200190815260200160002060a0604051908101604052908160008201548152602001600182018054600181600116156101000203166002900480601f016020809104026020016040519081016040528092919081815260200182805460018160011615610100020316600290048015611a355780601f10611a0a57610100808354040283529160200191611a35565b820191906000526020600020905b815481529060010190602001808311611a1857829003601f168201915b50505050508152602001600282018054600181600116156101000203166002900480601f016020809104026020016040519081016040528092919081815260200182805460018160011615610100020316600290048015611ad75780601f10611aac57610100808354040283529160200191611ad7565b820191906000526020600020905b815481529060010190602001808311611aba57829003601f168201915b5050505050815260200160038201548152602001600482015481525050905080600001518160200151826040015183606001518460800151839350829250955095509550955095505091939590929450565b60065481565b60011515600160003373ffffffffffffffffffffffffffffffffffffffff1673ffffffffffffffffffffffffffffffffffffffff16815260200190815260200160002060009054906101000a900460ff161515141515611b8e57600080fd5b60018060008373ffffffffffffffffffffffffffffffffffffffff1673ffffffffffffffffffffffffffffffffffffffff16815260200190815260200160002060006101000a81548160ff0219169083151502179055507ff1b55ffc7def5fab6cbef72d43b95f0b3ae9202c9a3840351afb814c971d0b0781604051808273ffffffffffffffffffffffffffffffffffffffff1673ffffffffffffffffffffffffffffffffffffffff16815260200191505060405180910390a150565b60033390806001815401808255809150509060018203906000526020600020016000909192909190916101000a81548173ffffffffffffffffffffffffffffffffffffffff021916908373ffffffffffffffffffffffffffffffffffffffff160217905550507fa5e57d1875d58013b21864fde7a14fcd02c34073a68ecbbfe0b7feb6b83a9dce33604051808273ffffffffffffffffffffffffffffffffffffffff1673ffffffffffffffffffffffffffffffffffffffff16815260200191505060405180910390a1565b6000809054906101000a900473ffffffffffffffffffffffffffffffffffffffff1673ffffffffffffffffffffffffffffffffffffffff163373ffffffffffffffffffffffffffffffffffffffff16141515611d7157600080fd5b600073ffffffffffffffffffffffffffffffffffffffff168173ffffffffffffffffffffffffffffffffffffffff1614151515611dad57600080fd5b8073ffffffffffffffffffffffffffffffffffffffff166000809054906101000a900473ffffffffffffffffffffffffffffffffffffffff1673ffffffffffffffffffffffffffffffffffffffff167f8be0079c531659141344cd1fd0a4f28419497f9722a3daafe3b4186f6b6457e060405160405180910390a3806000806101000a81548173ffffffffffffffffffffffffffffffffffffffff021916908373ffffffffffffffffffffffffffffffffffffffff16021790555050565b6000809054906101000a900473ffffffffffffffffffffffffffffffffffffffff1673ffffffffffffffffffffffffffffffffffffffff163373ffffffffffffffffffffffffffffffffffffffff16141515611ec657600080fd5b8073ffffffffffffffffffffffffffffffffffffffff16ff5b60a06040519081016040528060008152602001606081526020016060815260200160008152602001600081525090565b828054600181600116156101000203166002900490600052602060002090601f016020900481019282601f10611f5057805160ff1916838001178555611f7e565b82800160010185558215611f7e579182015b82811115611f7d578251825591602001919060010190611f62565b5b509050611f8b9190611f8f565b5090565b611fb191905b80821115611fad576000816000905550600101611f95565b5090565b905600a165627a7a72305820a874332bd7b5533474add17a1fc923da8110000a006c6cb09c8222ab741b24d00029",
  "source": "pragma solidity ^0.4.24;\n\nimport \"../installed_contracts/zeppelin/contracts/ownership/Ownable.sol\";\nimport \"../installed_contracts/zeppelin/contracts/lifecycle/Destructible.sol\";\n\n\n// add marketplace is ownable, killable\ncontract Marketplace is Ownable, Destructible {\n  mapping (address => bool) public members;\n    \n  mapping (address => bool) public sellers;\n  address[] public newSellerRequests;\n  \n  \n  \n  modifier onlyMember {\n    require(members[msg.sender] == true);\n    _;\n  }\n\n  modifier onlySeller() {\n    require(sellers[msg.sender] == true);\n    _;\n  }\n  \n  \n  //address public owner;\n  //string public name;\n  //string public description;\n  \n  event newMemberAdded (address newMemberAddress);\n  event removedMember (address removedMemberAddress);\n  event newSellerRequestSent(address sellerRequested);\n  event newSellerAdded(address approvedseller);\n  event newSellerRequestSent(address[]);\n  \n  \n  constructor() public {\n    members[msg.sender] = true;\n   \n\n  }\n// add only owner or only member modifier\n  function addMember(address newMember) public onlyMember {\n    members[newMember] = true;\n    emit newMemberAdded(newMember);\n  }\n  \n  \n  //onlyOwner\n  function removeMember(address member) onlyOwner public {\n      if (members[member] == true)\n      members[member] = false;\n      emit removedMember(member);\n      \n  }\n  \n  function getUserType() public view returns (string) {\n    if (members[msg.sender] == true) {\n      return 'marketplaceMember';\n    }\n    else if (sellers[msg.sender] == true) {\n      return 'seller';\n    }\n    else {\n      return 'customer';\n    }\n  }\n  \n  function addStoreOwnerRequest() public {\n    newSellerRequests.push(msg.sender);\n    emit newSellerRequestSent(msg.sender);\n  }\n  \n  function approveStoreOwner(uint index, address seller) public onlyMember {\n    require(newSellerRequests.length > index);\n    require(newSellerRequests[index] == seller);\n    sellers[seller] = true;\n   // emit newSellerAdded(address seller);\n  }\n  \n  function sellerRequestsList() public view returns (address[]) {\n    return newSellerRequests;\n  }\n  \n  \n  mapping(address => mapping(uint => Product)) stores;\n  mapping(uint => address) productIdInStore;\n  struct Product {\n        uint id;\n        string name;\n        string desc;\n        uint quantity;\n        uint price;\n  }\n  uint public productIndex;\n  mapping (uint => Product) public products;\n\n  event NewProduct(uint _productId,string _name, string _desc, uint _quantity, uint _price);\n  \n  function addProductToStore(string _name, string _desc, uint _quantity, uint _price) public payable onlySeller{\n        productIndex += 1;\n        Product memory product = Product(productIndex, _name, _desc, _quantity, _price);\n        stores[msg.sender][productIndex] = product;\n        productById[productIndex] = product;\n        productIdInStore[productIndex] = msg.sender;\n        emit NewProduct(productIndex, _name, _desc, _quantity, _price);\n        \n        \n    }\n  \n  function getProduct(uint _productId) view public returns (uint, string, string, uint, uint) {\n        \n        Product memory product = stores[productIdInStore[_productId]][_productId];\n        return (product.id, product.name, product.desc, product.quantity, product.price);\n    }\n  \n  mapping (uint => Product) public productById;\n  event PurchaseMade(uint indexed productId, uint quantity);\n  \n  \n\n  function buyItem(uint _id, uint _quantity)\n        public\n        payable\n       \n    {\n        require(productById[_id].price <= msg.value, \"not enough ether\");\n        require(productById[_id].quantity >= _quantity, \"we don't have that much sorry\");\n        emit PurchaseMade(_id, _quantity);\n        productById[_id].quantity = productById[_id].quantity - _quantity;\n    }\n  mapping (address => uint) private userBalance;\n\n  function withdraw() public payable onlySeller {\n   owner.transfer(address(this).balance);\n   userBalance[msg.sender] = 0;\n    }\n\n  function kill()public onlyOwner {\n    selfdestruct(owner);\n    \n  }\n    \n  function () public payable {}\n}",
  "sourcePath": "/home/ubuntu/Sudeep-Marketplace/contracts/Marketplace.sol",
  "compiler": {
    "name": "solc",
    "version": "0.4.24+commit.e67f0147.Emscripten.clang"
  },
  "schemaVersion": "2.0.1",
  "updatedAt": "2018-08-26T16:13:27.441Z"
}